:100000000C942A000C9447000C9447000C94470071
:100010000C9447000C9447000C9447000C94470044
:100020000C9447000C9447000C9447000C94470034
:100030000C9447000C9447000C9447000C94470024
:100040000C9447000C9447000C9447000C94470014
:100050000C94470011241FBECFE5D8E0DEBFCDBF12
:1000600011E0A0E6B0E0ECE3FDE202C005900D92E5
:10007000AC36B107D9F711E0ACE6B1E001C01D9292
:10008000A037B107E1F70E94FA070C9415160C94FB
:100090000000EF92FF920F931F93CF93DF93082FEF
:1000A000192F7B010E943C05EC018130910541F53F
:1000B000812F8370182F1065812F0E948A05EC0113
:1000C00081309105E9F4802F0E94A205EC01813076
:1000D0009105B1F40E945205EC018130910581F443
:1000E000812F0E947105EC018130910549F4C7010F
:1000F0000E94B605EC018130910511F40E9468055B
:100100008C2F9D2FDF91CF911F910F91FF90EF903A
:100110000895FF920F931F93CF93DF93082F192F0A
:10012000F62E0E943C05EC0181309105C9F4812F27
:10013000837080650E948A05EC018130910581F40D
:10014000802F0E94A205EC018130910549F48F2D8A
:100150000E94A205EC018130910511F40E9468050E
:100160008C2F9D2FDF91CF911F910F91FF900895BC
:100170000E94040508950E944B02A0E0B0E0BC017B
:10018000CD010E94A71320E030E841E354E40E942F
:100190001F1120E030E048EC52EC0E947D1120E07D
:1001A00030E04CE553E40E94771220E030E048EC68
:1001B00052E40E9450110E943209DC01CB010895E3
:1001C000682F80E040E00E94F803089580E090E00E
:1001D0000895EF92FF920F931F93DF93CF9300D078
:1001E0000F92CDB7DEB77C01FE01319683E0DF01CF
:1001F0001D928A95E9F70E943C058C01813091059A
:10020000A9F588E60E948A058C018130910571F577
:1002100080E00E94A2058C018130910539F50E9491
:1002200052058C018130910509F588E60E9471051F
:100230008C0181309105D1F4CE0101960E94D00548
:100240008C018130910591F4CE0102960E94D00577
:100250008C018130910551F4CE0103960E94B605C0
:100260008C018130910511F40E9468059981892FD4
:1002700082958F702AE0829F802D11249F70890FB4
:10028000F70180839A81892F82958F70829F802DBC
:1002900011249F70890F818314824B81842F829552
:1002A0008F7090E0837090709C01220F331F880F35
:1002B000991F880F991F880F991F280F4F70240FBF
:1002C0002283802F912F0F900F900F90CF91DF916D
:1002D0001F910F91FF90EF900895DF92EF92FF92A0
:1002E0000F931F93CF93DF938C01FC01F280E38087
:1002F000D4800E943C05EC018130910509F050C08A
:1003000088E60E948A05EC018130910509F048C019
:1003100083E00E94A205EC018130910509F040C004
:10032000F80180810E94A205EC0181309105C1F5A0
:100330008F2D6AE00E941816282F2295207F8F2D7E
:100340000E941816822F892B0E94A205EC01813091
:10035000910531F58E2D6AE00E941816282F2295FE
:10036000207F8E2D0E941816822F892B0E94A205B5
:10037000EC0181309105A1F48D2D6AE00E941816E0
:10038000282F2295207F8D2D0E941816822F892BD1
:100390000E94A205EC018130910511F40E946805CC
:1003A0008C2F9D2FDF91CF911F910F91FF90EF9098
:1003B000DF900895FF920F931F93CF93DF93FC017B
:1003C0001081F1803281832F6AE00E941816482F35
:1003D0004295407F2481222331F4832F0E941816F6
:1003E000042F092B09C08381282B832F6AE00E94E8
:1003F0001816292B022F042B0E943C05EC0181309A
:100400009105E1F588E60E948A05EC0181309105AD
:10041000A9F580E00E94A205EC018130910571F5FB
:10042000812F6AE00E941816282F2295207F812FA5
:100430000E941816292B822F8F770E94A205EC01AB
:1004400081309105D9F48F2D6AE00E941816282F6B
:100450002295207F8F2D0E941816822F892B0E94B3
:10046000A205EC018130910549F4802F0E94A2057C
:10047000EC018130910511F40E9468058C2F9D2FAD
:10048000DF91CF911F910F91FF90089580E687B97A
:1004900087E886B90895E7E2F0E09081907E908346
:1004A0009081892B8083E6E2F0E080818064808304
:1004B000808184FFFDCF25B1E6E2F0E0808180619C
:1004C000808330E0220F331F220F331F822F932FA0
:1004D0000895843008F099C0683008F096C0413023
:1004E00009F046C08130B9F0813030F0823011F12E
:1004F000833009F08DC02DC0EBE3F0E0208181E076
:1005000090E002C0880F991F6A95E2F7282B20839C
:1005100021E030E07FC0E8E3F0E0208181E090E07E
:1005200002C0880F991F6A95E2F7282B208321E0EB
:1005300030E070C0E5E3F0E0208181E090E002C0AF
:10054000880F991F6A95E2F7282B208321E030E07D
:1005500061C0E2E3F0E0208181E090E002C0880F1A
:10056000991F6A95E2F7282B208321E030E052C0E2
:10057000442309F04AC08130C1F0813030F082302C
:1005800021F1833009F044C030C0EBE3F0E020817A
:1005900081E090E002C0880F991F6A95E2F780958C
:1005A0008223808321E030E035C0E8E3F0E0208161
:1005B00081E090E002C0880F991F6A95E2F780956C
:1005C0008223808321E030E025C0E5E3F0E0208154
:1005D00081E090E002C0880F991F6A95E2F780954C
:1005E0008223808321E030E015C0E2E3F0E0208147
:1005F00081E090E002C0880F991F6A95E2F780952C
:100600008223808321E030E005C020E030E002C09A
:1006100021E030E0822F932F0895843008F099C0B4
:10062000683008F096C0413009F04AC08130C1F00E
:10063000813030F0823021F1833009F08DC030C03C
:10064000EBE3F0E0208181E090E002C0880F991F89
:100650006A95E2F780958223808321E030E07EC0B6
:10066000E8E3F0E0208181E090E002C0880F991F6C
:100670006A95E2F780958223808321E030E06EC0A6
:10068000E5E3F0E0208181E090E002C0880F991F4F
:100690006A95E2F780958223808321E030E05EC096
:1006A000E2E3F0E0208181E090E002C0880F991F32
:1006B0006A95E2F780958223808321E030E04EC086
:1006C000442309F046C08130B9F0813030F08230E7
:1006D00011F1833009F040C02DC0EBE3F0E0208140
:1006E00081E090E002C0880F991F6A95E2F7282BFD
:1006F000208321E030E032C0E8E3F0E0208181E0B7
:1007000090E002C0880F991F6A95E2F7282B20839A
:1007100021E030E023C0E5E3F0E0208181E090E0DB
:1007200002C0880F991F6A95E2F7282B208321E0E9
:1007300030E014C0E2E3F0E0208181E090E002C00C
:10074000880F991F6A95E2F7282B208321E030E07B
:1007500005C020E030E002C021E030E0822F932F7E
:100760000895FA01843008F03EC0683008F03BC0BC
:100770008130A9F0813038F08230E9F0833039F1EE
:1007800021E030E032C089B390E002C095958795B2
:100790006A95E2F78170808321E030E026C086B35D
:1007A00090E002C0959587956A95E2F78170808305
:1007B00021E030E01AC083B390E002C095958795A0
:1007C0006A95E2F78170808321E030E00EC080B34B
:1007D00090E002C0959587956A95E2F781708083D5
:1007E00021E030E002C020E030E0822F932F089516
:1007F000843008F099C0683008F096C0413009F0A4
:1008000046C08130B9F0813030F0823011F1833050
:1008100009F08DC02DC0EAE3F0E0208181E090E096
:1008200002C0880F991F6A95E2F7282B208321E0E8
:1008300030E07FC0E7E3F0E0208181E090E002C09B
:10084000880F991F6A95E2F7282B208321E030E07A
:1008500070C0E4E3F0E0208181E090E002C0880F06
:10086000991F6A95E2F7282B208321E030E061C0D0
:10087000E1E3F0E0208181E090E002C0880F991F61
:100880006A95E2F7282B208321E030E052C0442310
:1008900009F04DC08130C1F0813030F0823021F15B
:1008A000833009F044C030C0EAE3F0E0208181E009
:1008B00090E002C0880F991F6A95E2F78095822325
:1008C000808321E030E035C0E7E3F0E0208181E083
:1008D00090E002C0880F991F6A95E2F78095822305
:1008E000808321E030E025C0E4E3F0E0208181E076
:1008F00090E002C0880F991F6A95E2F780958223E5
:10090000808321E030E015C0E1E3F0E0208181E068
:1009100090E002C0880F991F6A95E2F780958223C4
:10092000808321E030E005C020E030E002C021E01B
:1009300030E0822F932F08958430C8F4813059F02D
:10094000813028F0823059F0833089F40CC06BBBC1
:1009500021E030E00EC068BB21E030E00AC065BB9A
:1009600021E030E006C062BB21E030E002C020E0C0
:1009700030E0822F932F08958430C8F4813059F0ED
:10098000813028F0823059F0833089F40CC06BBB81
:1009900021E030E00EC068BB21E030E00AC065BB5A
:1009A00021E030E006C062BB21E030E002C020E080
:1009B00030E0822F932F0895843008F5813069F05C
:1009C000813028F0823079F08330C9F412C0862F4C
:1009D00080958BBB21E030E014C0862F809588BBCA
:1009E00021E030E00EC0862F809585BB21E030E00D
:1009F00008C0862F809582BB21E030E002C020E055
:100A000030E0822F932F089582E082B9E1E2F0E096
:100A100080818E7F808380818D7F808380E280B91A
:100A2000E6E5F0E08081846080830895DF93CF93D2
:100A300000D000D00F92CDB7DEB749835A836B83C5
:100A4000972F7C838D83962B92B9E1E2F0E0808131
:100A50008E7F808380818D7F8083898180B9E6E568
:100A6000F0E08081846080830F900F900F900F9052
:100A70000F90CF91DF910895E6E5F0E080818062EC
:100A8000808380818068808380818823ECF781B1B6
:100A900020E030E0887F883011F421E030E0822FC0
:100AA000932F0895E6E5F0E0808180628083808165
:100AB0008068808380818823ECF781B120E030E07A
:100AC000887F803111F421E030E0822F932F089548
:100AD000E6E5F0E0808180618083808180688083AA
:100AE0000895880F816083B9E6E5F0E080818F7D0D
:100AF000808380818068808380818823ECF781B146
:100B000020E030E0887F803411F421E030E0822F53
:100B1000932F0895880F83B9E6E5F0E080818F7DFB
:100B2000808380818068808380818823ECF781B115
:100B300020E030E0887F883111F421E030E0822F1E
:100B4000932F089583B9E6E5F0E080818068808383
:100B500080818823ECF781B120E030E0887F883203
:100B600011F421E030E0822F932F0895DC01E6E5B7
:100B7000F0E080818068808380818F7B80838081AA
:100B80008823ECF781B1887F883519F020E030E0C8
:100B900004C083B18C9321E030E0822F932F08951D
:100BA000DC01E6E5F0E080818068808380818064FC
:100BB000808380818823ECF781B1887F803519F0AC
:100BC00020E030E004C083B18C9321E030E0822F3C
:100BD000932F0895DF93CF9300D00F92CDB7DEB758
:100BE000962F69837A838B83990F972B92B9E6E5C9
:100BF000F0E08081846080830F900F900F90CF9100
:100C0000DF910895E6E5F0E0808180648083808153
:100C10008068808380818823ECF781B120E030E018
:100C2000887F883A11F421E030E0822F932F0895D5
:100C3000E6E5F0E080818064808380818068808345
:100C400080818823ECF781B120E030E0887F803616
:100C500011F421E030E0822F932F089583B9E6E567
:100C6000F0E080818068808380818823ECF781B107
:100C700020E030E0887F803C11F421E030E0822FDA
:100C8000932F0895DC01E6E5F0E0808180688083A1
:100C900080818823ECF781B1887F803819F020E0CB
:100CA00030E004C083B18C9321E030E0822F932F99
:100CB00008950F931F938B019C0188E087BB4130FF
:100CC00019F04230D1F520C0C901B80120E030E070
:100CD00048EC52E40E94771220E030E040E853EC08
:100CE0000E947D1120E030E040E853E40E94501162
:100CF00020E030E040E85FE30E941F110E943209CB
:100D00006CBF89E783BF19C0C901B80120E030E09A
:100D100040E853EC0E947D1120E030E040E853E4CD
:100D20000E94501120E030E040E85FE30E941F1174
:100D30000E9432096CBF89E683BF1F910F9108950D
:100D40000F931F938B019C0188E087BB413019F002
:100D5000423071F51AC0C901B80120E030E04FE718
:100D600053E40E947D1120E030E048EC52EC0E94F8
:100D7000771220E030E04FE753E40E9450110E94C8
:100D800032096CBF81E783BF13C0C901B80120E0FD
:100D900030E04FE753E40E947D1120E030E048EC62
:100DA00052E40E9477120E9432096CBF81E683BF31
:100DB0001F910F9108958F929F92AF92BF92CF9201
:100DC000DF92EF92FF920F931F935B016C018824D7
:100DD0009924689486F8D4018C918F778C938C91A8
:100DE00080688C938C918F7B8C93EE24FF248701F9
:100DF0002A2D3B2D4C2D5D2D6E2D7F2D802F912F7B
:100E000004E00E94B308A22EB32EC42ED52EE62EE7
:100E1000F72E082F192F20E032E14AE750E060E07A
:100E200070E080E090E00E945E09A22EB32E08944C
:100E3000A108B108F401808180688083B082A9B8DC
:100E4000808182608083808184608083EAE2F0E038
:100E500080818B7F8083D4018C918F7E8C938C9149
:100E60008F7D8C938C9188608C9380818860808347
:100E70008081806180831F910F91FF90EF90DF90C0
:100E8000CF90BF90AF909F908F900895982FEBE2F6
:100E9000F0E0808185FFFDCF9CB90895EBE2F0E0A2
:100EA00080818823ECF78CB10895EF92FF920F9325
:100EB0001F93CF93DF937B018C01C0E0D0E0D8017A
:100EC000C7010C2E04C0B695A795979587950A94EF
:100ED000D2F70E9446072896C032D10581F7DF91EC
:100EE000CF911F910F91FF90EF900895EF92FF9295
:100EF0000F931F93CF93DF93EE24FF248701C0E06D
:100F0000D0E00E944E0790E00C2E02C0880F991F7F
:100F10000A94E2F7AA2797FDA095BA2FE82AF92AA2
:100F20000A2B1B2B2896C032D10559F76E2D7F2D29
:100F3000802F912FDF91CF911F910F91FF90EF9014
:100F40000895CF93DF93FC018081882339F0EF016E
:100F50000E944607898121968823D1F7DF91CF919E
:100F6000089582E090E06CE671E00E94490083E021
:100F700090E06DE671E00E94490080E090E06EE64E
:100F800071E00E94490081E090E06FE671E00E940C
:100F900049000895DF92EF92FF920F931F93E82E7E
:100FA000D62EF22E80E090E0642F0E94890000E2AD
:100FB0001EE4C8010197F1F781E090E06F2D0E94D7
:100FC0008900C8010197F1F782E090E06E2D0E9440
:100FD0008900C8010197F1F783E090E06D2D0E9430
:100FE0008900C8010197F1F71F910F91FF90EF90D1
:100FF000DF900895CF92DF92EF92FF920F931F93AD
:10100000DF93CF9300D000D00F92CDB7DEB728EE9C
:1010100033E048EC50E0CA010197F1F7215030402D
:10102000D1F70E94460286E00E94E0000E9404057B
:1010300060E875E280E090E00E94DB0682E389834D
:1010400083E18A8381E18B831D8280E28C83CE01E0
:1010500001960E94DA0180916000609161004091E8
:101060006200209163000E94CA070E94B10782E0DB
:1010700060E040E00E94F80301E06E010894C11CAA
:10108000D11CFF24F394EE2401C00E2D86E00E94B3
:10109000BB00182FC6010E94E9008D818823C9F486
:1010A0002B8180916C018217B8F0281729F49A815E
:1010B00080916D01981780F480916E01281760F07F
:1010C000281709F047C09A8180916F01891720F491
:1010D00041C0002309F03FC01B3548F060E070E0DC
:1010E00080E090E04F2D0E94A0060E2DCFCF812FE3
:1010F0008754833148F460E070E080EF91E44F2D35
:101100000E94A0060E2DC2CF812F8353833148F455
:1011100060E070E088E492E44F2D0E94A0060E2D5E
:10112000B5CF812F8F51833148F460E070E08CE8B7
:1011300092E44F2D0E94A0060E2DA8CF1E3108F07C
:10114000A4CF60E070E088EC92E44F2D0E94A006EE
:101150000E2D9CCF0F2D60E070E080E090E04F2DD1
:101160000E94A00693CFEF92FF920F93DF93CF934D
:10117000CDB7DEB760970FB6F894DEBF0FBECDBF18
:10118000A82F002309F461C07E010894E11CF11C22
:1011900088E0F70111928A95E9F729833A834B8316
:1011A0005C836D837E83AF83988780E2801BE82F0A
:1011B000FF27E7FDF09549815A816B817C811816E4
:1011C00084F019861A861B861C86882799278E1B11
:1011D0009F0B04C0440F551F661F771F8A95D2F7D7
:1011E00028C0202F332727FD3095DB01CA01022EAE
:1011F00004C0880F991FAA1FBB1F0A94D2F78987C2
:101200009A87AB87BC8704C07695679557954795B5
:10121000EA95D2F78D819E81AF81B88504C0880F91
:10122000991FAA1FBB1F2A95D2F7482B592B6A2B4F
:101230007B2B4D875E876F87788B29853A854B8519
:101240005C856D857E85AF8598898A2F60960FB6FF
:10125000F894DEBF0FBECDBFCF91DF910F91FF900D
:10126000EF900895EF92FF920F931F937B018C01F3
:1012700020E030E040E05FE40E94231388238CF0FC
:10128000C801B70120E030E040E05FE40E941F1198
:101290000E9453139B01AC01205030404040504805
:1012A00006C0C801B7010E9453139B01AC01B901EC
:1012B000CA011F910F91FF90EF900895AEE5B0E045
:1012C000E4E6F9E00C946516A8E04E010894811C50
:1012D000911CF4016A2E11926A94E9F729833A83EA
:1012E0004B835C836D837E838F839887CE010996C1
:1012F000FC011192AA95E9F7A986BA86CB86DC860D
:10130000ED86FE860F87188B29843A844B845C8493
:10131000ED84FE840F85188969807A808B809C809B
:101320006DA67EA68FA698AA6D807E808F809884F9
:10133000E114F1040105110509F0B3C3621473044B
:101340008404950408F03DC100E0201600E030065A
:1013500001E0400600E0500688F41FEF211631043A
:101360004104510439F030F048E0E42EF12C012D15
:10137000112D18C0EE24FF24870114C020E022168E
:1013800020E0320620E0420621E0520630F038E14B
:10139000E32EF12C012D112D05C020E1E22EF12CC0
:1013A000012D112DD201C1010E2C04C0B695A795B7
:1013B000979587950A94D2F784599F4FDC012C9119
:1013C00080E290E0A0E0B0E08E199F09A00BB10B85
:1013D0007C018D01E21AF10801091109E114F104FF
:1013E00001051105A1F10E2C04C0220C331C441C74
:1013F000551C0A94D2F7A40193010E2C04C0220FAD
:10140000331F441F551F0A94D2F780E290E08E19D3
:101410009F096DA47EA48FA498A804C09694879475
:10142000779467948A95D2F7622A732A842A952A38
:10143000ADA4BEA4CFA4D8A804C0AA0CBB1CCC1CCD
:10144000DD1CEA94D2F7ADA6BEA6CFA6D8AA62014B
:10145000EE24FF24CDAADEAAEFAAF8AE9201810104
:101460002070307009AF1AAF2BAF3CAFC401B3018D
:10147000A70196010E9443167B018C01C401B301B0
:101480002DA93EA94FA958AD0E944316C901DA0102
:101490003C014D01C401B30129AD3AAD4BAD5CAD8A
:1014A0000E9424169B01AC018701FF24EE24ADA409
:1014B000BEA4CFA4D8A8C601AA27BB27570168019C
:1014C000A82AB92ACA2ADB2AA216B306C406D50658
:1014D000E0F408946108710881089108A20CB31C1B
:1014E000C41CD51CA214B304C404D50470F0A21605
:1014F000B306C406D50648F408946108710881084B
:101500009108A20CB31CC41CD51CA21AB30AC40AAD
:10151000D50AC601B5012DA93EA94FA958AD0E9413
:1015200043167B018C01C601B5012DA93EA94FA927
:1015300058AD0E944316C901DA015C016D01C60174
:10154000B50129AD3AAD4BAD5CAD0E9424169B01AF
:10155000AC018701FF24EE248DA59EA5AFA5B8A9F7
:10156000A070B070E82AF92A0A2B1B2BE216F306AA
:1015700004071507C0F40894A108B108C108D108F0
:10158000E20CF31C041D151DE214F30404051505FB
:1015900050F0E216F3060407150728F40894A10892
:1015A000B108C108D108D3019927882786017501A0
:1015B000E82AF92A0A2B1B2BE9AAFAAA0BAB1CABC7
:1015C000CFC4211431044104510471F461E070E08E
:1015D00080E090E020E030E040E050E00E944316E0
:1015E000C901DA011C012D0100E0201600E03006DF
:1015F00001E0400600E0500688F41FEF2116310498
:101600004104510431F028F048E050E060E070E01F
:1016100017C040E050E060E070E012C020E0221609
:1016200020E0320620E0420621E0520628F048E1A0
:1016300050E060E070E004C040E150E060E070E045
:10164000D201C101042E04C0B695A7959795879540
:101650000A94D2F784599F4FDC012C91E0E2EE2EE0
:10166000F12C012D112DD801C701841B950BA60B60
:10167000B70B821B9109A109B1090097A105B1051A
:1016800061F464015301A218B308C408D50831E01D
:10169000632E712C812C912C1EC16F968FAF6F978A
:1016A000082E04C0220C331C441C551C0A94D2F78B
:1016B000EE2DE81B640153010E2E04C0D694C7948E
:1016C000B794A7940A94D2F7A40193016F960FAC34
:1016D0006F9704C0220F331F441F551F0A94D2F77F
:1016E0006DA47EA48FA498A80E2E04C0969487940F
:1016F000779467940A94D2F784017301E22AF32A5B
:10170000042B152BE9A6FAA60BA71CA732018824E7
:101710009924920181012070307021960CAF1DAF89
:101720002EAF3FAF2197C601B501A40193010E94DE
:1017300043167B018C01C601B501A40193010E94EF
:101740004316C901DA0125968CAF9DAFAEAFBFAF8E
:101750002597BC01CD0121962CAD3DAD4EAD5FADC1
:1017600021970E9424169B01AC018701FF24EE24DF
:10177000A9A4BAA4CBA4DCA4C601AA27BB275C01F8
:101780006D01AE28BF28C02AD12AA216B306C4060E
:10179000D50660F525966CAD7DAD8EAD9FAD2597D8
:1017A000615070408040904025966CAF7DAF8EAF09
:1017B0009FAF2597A20CB31CC41CD51CA214B30464
:1017C000C404D50498F0A216B306C406D50670F476
:1017D000615070408040904025966CAF7DAF8EAFD9
:1017E0009FAF2597A20CB31CC41CD51CA21AB30A28
:1017F000C40AD50AC601B501A40193010E9443168B
:101800007B018C01C601B501A40193010E9443161E
:10181000C901DA013C014D01C401B30121962CAD8F
:101820003DAD4EAD5FAD21970E9424169B01AC01EA
:101830008701FF24EE2489A59AA5ABA5BCA5A070BD
:10184000B07057016801A82AB92ACA2ADB2AA21651
:10185000B306C406D506E0F408946108710881084F
:101860009108A20CB31CC41CD51CA214B304C4045C
:10187000D50470F0A216B306C406D50648F4089441
:101880006108710881089108A20CB31CC41CD51C06
:101890008DA59EA5AFA5B8A96F960FAC6F9704C094
:1018A000880F991FAA1FBB1F0A94D2F78DA79EA766
:1018B000AFA7B8ABA21AB30AC40AD50A2596ECACF6
:1018C000FDAC0EAD1FAD2597D70199278827682A53
:1018D000792A8A2A9B2A82012227332729960CAF4C
:1018E0001DAF2EAF3FAF2997A201910140705070FC
:1018F0002D962CAF3DAF4EAF5FAF2D97C601B50112
:1019000029962CAD3DAD4EAD5FAD29970E94431693
:101910007B018C01C601B50129962CAD3DAD4EADC4
:101920005FAD29970E944316C901DA0161968CAF19
:101930009DAFAEAFBFAF6197BC01CD012D962CAD71
:101940003DAD4EAD5FAD2D970E9424169B01AC01BD
:101950008701FF24EE24ADA4BEA4CFA4D8A8C6015D
:10196000AA27BB2757016801A82AB92ACA2ADB2A55
:10197000A216B306C406D50660F561966CAD7DADC2
:101980008EAD9FAD619761507040804090406196F0
:101990006CAF7DAF8EAF9FAF6197A20CB31CC41C20
:1019A000D51CA214B304C404D50498F0A216B3063F
:1019B000C406D50670F46150704080409040619636
:1019C0006CAF7DAF8EAF9FAF6197A20CB31CC41CF0
:1019D000D51CA21AB30AC40AD50AC601B5012996B4
:1019E0002CAD3DAD4EAD5FAD29970E9443167B01F6
:1019F0008C01C601B50129962CAD3DAD4EAD5FAD54
:101A000029970E944316C901DA015C016D01C601E4
:101A1000B5012D962CAD3DAD4EAD5FAD2D970E941D
:101A200024169B01AC018701FF24EE248DA59EA501
:101A3000AFA5B8A9A070B070E82AF92A0A2B1B2B11
:101A4000E216F30604071507C0F40894A108B108CC
:101A5000C108D108E20CF31C041D151DE214F304A7
:101A60000405150550F0E216F3060407150728F4DF
:101A70000894A108B108C108D1086196ECACFDAC8E
:101A80000EAD1FAD6197D701992788279601850173
:101A9000082B192B2A2B3B2B09AB1AAB2BAB3CABDE
:101AA00062C26E147F048006910608F451C220E0E1
:101AB000E21620E0F20621E0020720E0120788F497
:101AC0003FEFE316F1040105110531F028F048E07D
:101AD00050E060E070E017C040E050E060E070E08F
:101AE00012C040E0E41640E0F40640E0040741E0A4
:101AF000140728F048E150E060E070E004C040E1E5
:101B000050E060E070E0D801C701042E04C0B69533
:101B1000A795979587950A94D2F784599F4FDC0132
:101B20002C9130E2A32EB12CC12CD12CD601C501B1
:101B3000841B950BA60BB70B821B9109A109B10958
:101B40000097A105B10589F4E614F7040805190505
:101B500008F4F2C16DA47EA48FA498A86214730443
:101B60008404950408F0E8C1F3C16E968FAF6E97B8
:101B7000082E04C0EE0CFF1C001F111F0A94D2F7A0
:101B80006A2D681BD201C101062E04C0B695A79527
:101B9000979587950A94D2F75C016D01AE28BF280E
:101BA000C02AD12AADA2BEA2CFA2D8A672016101DD
:101BB0006E960FAC6E9704C0CC0CDD1CEE1CFF1CA7
:101BC0000A94D2F7C9A2DAA2EBA2FCA264015301E3
:101BD000062E04C0D694C794B794A7940A94D2F75B
:101BE000D401C3016E960FAC6E9704C0880F991F85
:101BF000AA1FBB1F0A94D2F7EDA4FEA40FA518A933
:101C000004C016950795F794E7946A95D2F73701C3
:101C10004801682A792A8A2A9B2A6D8E7E8E8F8EA9
:101C200098A2EDA0FEA00FA118A538018824992440
:101C3000980187012070307065960CAF1DAF2EAFF4
:101C40003FAF6597C601B501A40193010E944316F9
:101C50007B018C01C601B501A40193010E944316CA
:101C6000C901DA011C012D01C201B10165962CAD3B
:101C70003DAD4EAD5FAD65970E9424169B01AC0152
:101C80008701FF24EE24AD8CBE8CCF8CD8A0C6017A
:101C9000AA27BB2757016801A82AB92ACA2ADB2A22
:101CA000A216B306C406D50600F50894210831082B
:101CB00041085108EDA0FEA00FA118A5AE0CBF1C55
:101CC000C01ED11EAE14BF04C006D10670F0A2160D
:101CD000B306C406D50648F4089421083108410823
:101CE0005108AE0CBF1CC01ED11EA21AB30AC40AF2
:101CF000D50AC601B501A40193010E9443167B01D8
:101D00008C01C601B501A40193010E944316C901CB
:101D1000DA013C014D01C401B30165962CAD3DAD26
:101D20004EAD5FAD65970E9424169B01AC01870103
:101D3000FF24EE248D8D9E8DAF8DB8A1A070B07064
:101D400057016801A82AB92ACA2ADB2AA216B306B3
:101D5000C406D50600F50894610871088108910849
:101D60006DA17EA18FA198A5A60EB71EC81ED91E73
:101D7000A616B706C806D90670F0A216B306C406A2
:101D8000D50648F408946108710881089108A60EE8
:101D9000B71EC81ED91ED601C501821B930BA40B0A
:101DA000B50B898F9A8FAB8FBC8FD101992788276C
:101DB00064015301A82AB92ACA2ADB2AA9AABAAA05
:101DC000CBAADCAA860175012FEF3FEF40E050E07F
:101DD000E222F32204231523A601662777276D96B6
:101DE0004CAF5DAF6EAF7FAF6D97A9A0BAA0CBA08F
:101DF000DCA06FEF7FEF80E090E0A622B722C82240
:101E0000D92289A19AA1ABA1BCA11D0144245524CA
:101E1000C801B701A60195010E94241669966CAF0E
:101E20007DAF8EAF9FAF6997C801B701A201910145
:101E30000E9424163B014C016D966CAD7DAD8EADBC
:101E40009FAD6D97A60195010E9424167B018C0120
:101E50006D966CAD7DAD8EAD9FAD6D97A20191017C
:101E60000E9424165B016C01A8019701260D371D05
:101E7000481D591D69966CAC7DAC8EAC9FAC6997C2
:101E8000C401AA27BB27280F391F4A1F5B1F2E1525
:101E90003F054007510748F4E12CF12C61E0062F83
:101EA000112DAE0CBF1CC01ED11ECA01AA27BB2714
:101EB000BC01CD016A0D7B1D8C1D9D1D698C7A8C2A
:101EC0008B8C9C8C661677068806990640F1661501
:101ED00077058805990509F043C0D9019927882716
:101EE00069962CAD3DAD4EAD5FAD699740705070B9
:101EF000820F931FA41FB51F2DA53EA54FA558A95E
:101F00006E960FAC6E9704C0220F331F441F551FEF
:101F10000A94D2F7281739074A075B0708F509A979
:101F20001AA92BA93CA9015010402040304009AB10
:101F30001AAB2BAB3CAB14C066247724430121E0E1
:101F400030E040E050E029AB3AAB4BAB5CAB0BC0B0
:101F500066247724430119AA1AAA1BAA1CAA03C043
:101F6000662477244301FE01719688E0DF011D920B
:101F70008A95E9F7A9A8BAA8CBA8DCA8A98ABA8A41
:101F8000CB8ADC8A6D8A7E8A8F8A988E29A93A89C3
:101F90004B895C89662D7E898F89988DC25ADF4F67
:101FA000E2E10C948116A0E0B0E0E9EDFFE00C94D2
:101FB0006516DC012B01FA019C91923008F439C1BD
:101FC000EB018881823008F433C1943069F48430A5
:101FD00009F02FC111969C9111978981981709F4E6
:101FE00028C1A4E6B0E025C1843009F421C18230C3
:101FF000A9F4923009F01DC19A01AD0188E0EA010F
:102000000990AE01E90109929E018150C1F7E201F8
:10201000898111969C918923818308C1923009F4AA
:1020200007C112962D903C901397EB018A819B81FA
:102030001496AD90BD90CD90DC901797EC80FD800C
:102040000E811F819101281B390BB90137FF04C094
:1020500066277727621B730B603271050CF061C035
:10206000121613066CF537014801062E04C096942B
:102070008794779467940A94D2F721E030E040E0A7
:1020800050E004C0220F331F441F551F6A95D2F73A
:1020900021503040404050402E213F2140235123C9
:1020A000211531054105510521F021E030E040E0E6
:1020B00050E079018A01E628F728082919293CC04F
:1020C000232BD1F1260E371E35014601062E04C002
:1020D00096948794779467940A94D2F721E030E03D
:1020E00040E050E004C0220F331F441F551F6A9583
:1020F000D2F721503040404050402A213B214C2112
:102100005D21211531054105510521F021E030E027
:1021100040E050E059016A01A628B728C828D9280C
:102120000BC0821593052CF01C01AA24BB24650169
:1021300003C0EE24FF24870111969C91D2011196D1
:102140008C91981709F445C0992339F0A80197019B
:102150002A193B094C095D0906C0A60195012E19F3
:102160003F09400B510B57FD08C011823382228278
:1021700024833583468357831DC081E08183338266
:10218000228288279927DC01821B930BA40BB50BB5
:1021900084839583A683B7830DC0220F331F441F0A
:1021A000551F24833583468357838281938101970A
:1021B000938382832481358146815781DA01C90165
:1021C0000197A109B1098F5F9F4FAF4FBF4328F31C
:1021D0000BC0918333822282EA0CFB1C0C1D1D1D57
:1021E000E482F5820683178383E08083248135812E
:1021F0004681578157FF1AC0C901AA2797FDA095AC
:10220000BA2F81709070A070B07056954795379531
:102210002795822B932BA42BB52B84839583A683A0
:10222000B78382819381019693838283DF0101C00A
:10223000D201CD01CDB7DEB7E2E10C948116A0E268
:10224000B0E0E5E2F1E10C94711669837A838B8347
:102250009C832D833E834F835887E9E0EE2EF12C3B
:10226000EC0EFD1ECE010196B7010E9444158E01B1
:102270000F5E1F4FCE010596B8010E9444158A8952
:1022800091E089278A8BC701B801AE01475E5F4F95
:102290000E94D30F0E946F14A096E6E00C948D1656
:1022A000A0E2B0E0E6E5F1E10C94711669837A836F
:1022B0008B839C832D833E834F835887F9E0EF2ED9
:1022C000F12CEC0EFD1ECE010196B7010E944415C3
:1022D0008E010F5E1F4FCE010596B8010E94441576
:1022E000C701B801AE01475E5F4F0E94D30F0E9445
:1022F0006F14A096E6E00C948D16A0E2B0E0E3E83F
:10230000F1E10C94651669837A838B839C832D831A
:102310003E834F835887CE010196BE01675F7F4F92
:102320000E944415CE010596BE016F5E7F4F0E944C
:1023300044159985923088F089898230C8F09430AC
:1023400019F4823051F404C0843029F4923081F4BD
:1023500084E690E0C6C0923049F420E09A858A89EC
:10236000981321E02A87CE010996BBC0823049F438
:1023700020E09A858A89981321E02A8BCE01419624
:10238000B0C02D843E844F8458886D887E888F88A5
:10239000988CEE24FF248701AA24BB24650140E029
:1023A00050E060E070E0E0E0F0E0C101817090702A
:1023B000892BE9F0E60CF71C081D191D9A01AB01E9
:1023C0002A0D3B1D4C1D5D1D80E090E0A0E0B0E0BB
:1023D000E614F7040805190520F481E090E0A0E078
:1023E000B0E0BA01A901480F591F6A1F7B1FAA0C50
:1023F000BB1CCC1CDD1C97FE08C081E090E0A0E077
:10240000B0E0A82AB92ACA2ADB2A3196E032F105BF
:1024100049F0660C771C881C991C56944794379495
:102420002794C3CFFA85EA892B893C898B859C85C3
:10243000280F391F2E5F3F4F17C0CA01817090705F
:10244000892B61F016950795F794E79480E090E06A
:10245000A0E0B0E8E82AF92A0A2B1B2B76956795AD
:10246000579547952F5F3F4F77FDE7CF0CC0440F3F
:10247000551F661F771F17FD4160EE0CFF1C001FE4
:10248000111F21503040403090E0590790E069071B
:1024900090E4790760F32B8F3C8FDB01CA018F77C3
:1024A0009070A070B07080349105A105B10561F401
:1024B00047FD0AC0E114F1040105110529F0405C53
:1024C0005F4F6F4F7F4F40781A8EFE1711F081E0FB
:1024D0008A8F4D8F5E8F6F8F78A383E0898FCE01B7
:1024E00049960E946F14A096E2E10C948116A8E12F
:1024F000B0E0EDE7F2E10C946D1669837A838B838B
:102500009C832D833E834F835887B9E0EB2EF12CBB
:10251000EC0EFD1ECE010196B7010E9444158E01FE
:102520000F5E1F4FCE010596B8010E944415298504
:10253000223008F47EC03989323010F4B8017CC0F2
:102540008A859A8989278A87243011F0223031F4CC
:10255000231709F06EC064E670E06EC0343039F4C1
:102560001D861E861F86188A1C861B8604C0323074
:1025700021F484E08987B7015FC02B853C858B8976
:102580009C89281B390B3C872B87ED84FE840F85A3
:102590001889AD88BE88CF88D88CEA14FB040C0556
:1025A0001D0540F4EE0CFF1C001F111F2150304090
:1025B0003C872B8720E030E040E050E080E090E076
:1025C000A0E0B0E460E070E0EA14FB040C051D0537
:1025D00040F0282B392B4A2B5B2BEA18FB080C09FF
:1025E0001D09B695A79597958795EE0CFF1C001FC2
:1025F000111F6F5F7F4F6F31710531F7DA01C9012C
:102600008F779070A070B07080349105A105B105EE
:1026100061F427FD0AC0E114F1040105110529F058
:10262000205C3F4F4F4F5F4F20782D873E874F876D
:10263000588BBE01675F7F4FCB010E946F14689675
:10264000EAE00C948916A8E1B0E0E9E2F3E10C9429
:10265000711669837A838B839C832D833E834F839A
:10266000588789E0E82EF12CEC0EFD1ECE01019674
:10267000B7010E9444158E010F5E1F4FCE010596D3
:10268000B8010E9444158985823040F089898230E2
:1026900028F0C701B8010E94BC1501C08FEF6896F1
:1026A000E6E00C948D16ACE0B0E0E9E5F3E10C94C3
:1026B000751669837A838B839C83CE010196BE0154
:1026C0006B5F7F4F0E9444158D81823061F18230B3
:1026D00050F1843021F48E81882351F12EC02F8156
:1026E000388537FD20C06E812F3131051CF06623FF
:1026F000F9F023C08EE190E0821B930B29853A8587
:102700004B855C8504C056954795379527958A95E6
:10271000D2F76623B1F050954095309521953F4F03
:102720004F4F5F4F0EC020E030E040E050E009C066
:102730002FEF3FEF4FEF5FE704C020E030E040E0D5
:1027400050E8B901CA012C96E2E00C949116A8E079
:10275000B0E0EDEAF3E10C946D167B018C0161159C
:1027600071058105910519F482E0898360C083E0D9
:1027700089838EE1C82ED12CDC82CB82ED82FE8251
:102780000F831887C801B7010E942014FC013197FC
:10279000F7FF3BC0222733272E1B3F0B5701680151
:1027A000022E04C0D694C794B794A7940A94D2F783
:1027B00040E050E060E070E081E090E0A0E0B0E058
:1027C00004C0880F991FAA1FBB1F2A95D2F7019733
:1027D000A109B1098E219F21A023B1230097A10552
:1027E000B10521F041E050E060E070E04A295B294A
:1027F0006C297D294D835E836F8378878EE190E01D
:102800008E1B9F0B9C838B8312C0309781F00E2E02
:1028100004C0EE0CFF1C001F111F0A94D2F7ED82BA
:10282000FE820F831887CE1ADF0ADC82CB821A82DF
:10283000CE0101960E946F142896EAE00C94891646
:10284000EF92FF920F931F937B018C0180E0E816BB
:1028500080E0F80681E0080780E0180788F48FEF31
:10286000E816F1040105110531F028F088E090E048
:10287000A0E0B0E017C080E090E0A0E0B0E012C0BF
:1028800080E0E81680E0F80680E0080781E018079D
:1028900028F088E190E0A0E0B0E004C080E190E0A2
:1028A000A0E0B0E020E230E040E050E0281B390B2F
:1028B0004A0B5B0B04C016950795F794E7948A952D
:1028C000D2F7F701E459FF4F8081281B31094109F4
:1028D0005109C9011F910F91FF90EF900895DF9268
:1028E000EF92FF920F931F93FC01E480F580068125
:1028F0001781D1808081823048F480E090E0A0E1AF
:10290000B0E0E82AF92A0A2B1B2BA5C0843009F471
:102910009FC0823021F4EE24FF24870105C0E1141A
:10292000F1040105110519F4E0E0F0E096C06281C0
:1029300073819FEF623879070CF05BC022E83FEFAC
:10294000261B370B2A3131052CF020E030E040E027
:1029500050E02AC0B801A701022E04C07695679501
:10296000579547950A94D2F781E090E0A0E0B0E057
:1029700004C0880F991FAA1FBB1F2A95D2F7019781
:10298000A109B1098E219F21A023B1230097A105A0
:10299000B10521F081E090E0A0E0B0E09A01AB0148
:1029A000282B392B4A2B5B2BDA01C9018F779070CA
:1029B000A070B07080349105A105B10539F427FFEE
:1029C00009C0205C3F4F4F4F5F4F04C0215C3F4F19
:1029D0004F4F5F4FE0E0F0E02030A0E03A07A0E08A
:1029E0004A07A0E45A0710F0E1E0F0E079018A011B
:1029F00027C06038710564F5FB01E158FF4FD8012D
:102A0000C7018F779070A070B07080349105A105D8
:102A1000B10539F4E7FE0DC080E490E0A0E0B0E03D
:102A200004C08FE390E0A0E0B0E0E80EF91E0A1FBA
:102A30001B1F17FF05C016950795F794E79431966D
:102A400087E016950795F794E7948A95D1F705C026
:102A5000EE24FF248701EFEFF0E06E2F67956627E5
:102A60006795902F9F77D794DD24D7948E2F8695E6
:102A7000492F462B582F5D29B701CA011F910F918D
:102A8000FF90EF90DF900895FC01DB0140815181C0
:102A90002281622F6F7770E0221F2227221F9381ED
:102AA000892F880F822B282F30E0991F9927991F93
:102AB00011969C93119721153105A9F541155105E2
:102AC0006105710511F482E037C082E89FEF13962B
:102AD0009C938E9312979A01AB0167E0220F331FEC
:102AE000441F551F6A95D1F783E08C930DC0220FC8
:102AF000331F441F551F12968D919C911397019778
:102B000013969C938E931297203080E0380780E0D4
:102B1000480780E4580758F314962D933D934D933E
:102B20005C93179708952F3F310579F441155105AE
:102B30006105710519F484E08C93089564FF03C066
:102B400081E08C9312C01C9210C02F573040139616
:102B50003C932E93129783E08C9387E0440F551F8C
:102B6000661F771F8A95D1F7706414964D935D9315
:102B70006D937C93179708951F93DC01FB019C9143
:102B8000923008F447C08081823008F443C094300A
:102B900051F411961C91843099F58181682F70E071
:102BA000611B71093FC0843021F0923031F48230D2
:102BB000B9F18181882389F12DC011961C9111975B
:102BC0008230F1F081811817D9F412962D913C9141
:102BD0001397828193818217930794F028173907FE
:102BE000BCF014968D919D910D90BC91A02D2481E7
:102BF000358146815781281739074A075B0718F442
:102C0000112341F00AC082179307A407B50740F4C7
:102C1000112319F061E070E005C06FEF7FEF02C093
:102C200060E070E0CB011F910895F8940C949C161D
:102C3000991B79E004C0991F961708F0961B881F0E
:102C40007A95C9F780950895629FD001739FF0012E
:102C5000829FE00DF11D649FE00DF11D929FF00D2C
:102C6000839FF00D749FF00D659FF00D9927729F63
:102C7000B00DE11DF91F639FB00DE11DF91FBD01EE
:102C8000CF0111240895A1E21A2EAA1BBB1BFD013E
:102C90000DC0AA1FBB1FEE1FFF1FA217B307E4073B
:102CA000F50720F0A21BB30BE40BF50B661F771F93
:102CB000881F991F1A9469F7609570958095909573
:102CC0009B01AC01BD01CF0108952F923F924F921D
:102CD0005F926F927F928F929F92AF92BF92CF92AC
:102CE000DF92EF92FF920F931F93CF93DF93CDB7B5
:102CF000DEB7CA1BDB0B0FB6F894DEBF0FBECDBF2D
:102D000009942A88398848885F846E847D848C84FD
:102D10009B84AA84B984C884DF80EE80FD800C8106
:102D20001B81AA81B981CE0FD11D0FB6F894DEBFE9
:0C2D30000FBECDBFED010895F894FFCF59
:102D3C001114060F00000000000000000001020248
:102D4C000303030304040404040404040505050537
:102D5C000505050505050505050505050606060613
:102D6C0006060606060606060606060606060606F7
:102D7C0006060606060606060606060607070707E3
:102D8C0007070707070707070707070707070707C7
:102D9C0007070707070707070707070707070707B7
:102DAC0007070707070707070707070707070707A7
:102DBC000707070707070707070707070808080893
:102DCC000808080808080808080808080808080877
:102DDC000808080808080808080808080808080867
:102DEC000808080808080808080808080808080857
:102DFC000808080808080808080808080808080847
:102E0C000808080808080808080808080808080836
:102E1C000808080808080808080808080808080826
:102E2C000808080808080808080808080808080816
:0C2E3C000808080808080808080808082A
:00000001FF
